:020000040800F2
:1000000000800120E92600088126000883260008D8
:1000100085260008872600088926000800000000C1
:10002000000000000000000000000000A115000812
:100030008B26000800000000311600089516000805
:100040003927000839270008392700083927000810
:100050003927000839270008392700083927000800
:1000600039270008392700083927000839270008F0
:1000700039270008392700083927000839270008E0
:100080003927000839270008392700080000000038
:1000900000000000000000000000000039270008F8
:1000A00039270008392700083927000839270008B0
:1000B00039270008392700088D260008392700084D
:1000C0003927000839270008392700083927000890
:1000D00039270008392700083927000800000000E8
:1000E00039270008392700083927000800000000D8
:1000F0000000000000000000000000003927000898
:1001000000000000392700083927000839270008B7
:1001100000000000000000000000000000000000DF
:10012000392700083927000839270008392700082F
:100130003927000800000000000000000000000057
:100140000000000000000000000000003927000847
:1001500039270008392700083927000839270008FF
:1001600039270008392700080000000000000000BF
:10017000000000000000000000000000000000007F
:100180000000000039270008000000000000000007
:040190003927000803
:1001A00010B5054C237833B9044B13B10448AFF3B1
:1001B00000800123237010BD7400002000000000A7
:1001C000EC2F000808B5034B1BB103490348AFF3FC
:1001D000008008BD0000000078000020EC2F00081F
:1001E000034613F8012B002AFBD1181A0138704777
:1001F00001F0FF01102A2BDB10F0070F08D010F8D8
:10020000013B013A8B422DD010F0070F42B3F6D1DB
:10021000F0B441EA012141EA014122F007047FF0F4
:1002200000070023F0E80256083C85EA010586EA4B
:10023000010685FA47F5A3FA87F586FA47F6A5FA87
:1002400087F68EB9EED1F0BC01F0FF0102F0070293
:1002500032B110F8013B013A83EA010313B1F8D13E
:100260000020704701387047002D06BF354603381F
:10027000073815F0010F07D1013015F4807F02BF58
:10028000013015F4C03F0130F0BC0138704700BFA9
:1002900053B94AB9002908BF00281CBF4FF0FF31ED
:1002A0004FF0FF3000F07AB9ADF1080C6DE904CEE3
:1002B00000F006F8DDF804E0DDE9022304B0704741
:1002C0002DE9F0478C460D460446089E002B51D17F
:1002D0008A4217466DD9B2FA82FEBEF1000F0BD0EA
:1002E000CEF1200C01FA0EF520FA0CFC02FA0EF702
:1002F0004CEA050C00FA0EF44FEA174A250CBCFB39
:10030000FAF81FFA87F90AFB18CC45EA0C4508FBF6
:1003100009F3AB420AD9ED1908F1FF3280F02381CD
:10032000AB4240F22081A8F102083D44ED1AA4B28C
:10033000B5FBFAF00AFB105544EA054400FB09F945
:10034000A14509D9E41900F1FF3380F00A81A145E4
:1003500040F2078102383C44A4EB090440EA08401B
:100360000021002E61D024FA0EF400233460736063
:10037000BDE8F0878B4207D9002E54D0002186E8D3
:1003800021000846BDE8F087B3FA83F1002940F068
:100390008E80AB4202D3824200F2FA80841A65EB6F
:1003A00003050120AC46002E3FD086E81010BDE8C2
:1003B000F08712B90127B7FBF2F7B7FA87FEBEF153
:1003C000000F34D1EB1B3A0C1FFA87FC0121B3FB61
:1003D000F2F8250C02FB183345EA03450CFB08F341
:1003E000AB4207D9ED1908F1FF3002D2AB4200F25F
:1003F000D1808046ED1AA3B2B5FBF2F002FB105596
:1004000043EA05440CFB00FCA44507D9E41900F1BC
:10041000FF3302D2A44500F2B8801846A4EB0C04C6
:1004200040EA08409DE731463046BDE8F087CEF10E
:10043000200405FA0EF307FA0EF720FA04F83A0C36
:1004400025FA04F448EA0308B4FBF2F14FEA184530
:1004500002FB11441FFA87FC45EA044501FB0CF33B
:10046000AB4200FA0EF409D9ED1901F1FF3080F02A
:100470008A80AB4240F2878002393D44EB1A1FFA72
:1004800088F5B3FBF2F002FB103345EA034500FBAD
:100490000CF3AB4207D9ED1900F1FF386FD2AB4234
:1004A0006DD902383D44EB1A40EA01418FE7C1F1B2
:1004B000200722FA07F88B4005FA01F448EA030303
:1004C00020FA07FE4FEA134CFD404EEA040EB5FB3E
:1004D000FCF94FEA1E440CFB19551FFA83F844EA55
:1004E000054509FB08F4AC4202FA01F200FA01FAF0
:1004F00008D9ED1809F1FF3043D2AC4241D9A9F136
:1005000002091D442D1B1FFA8EFEB5FBFCF00CFBEF
:1005100010554EEA054400FB08F8A04507D9E41839
:1005200000F1FF3529D2A04527D902381C4440EA02
:100530000940A4EB0804A0FB02894C45C6464D4681
:1005400015D312D056B1BAEB0E0364EB050404FACE
:1005500007F7CB401F43CC40376074600021BDE8F3
:10056000F0871846F8E69046E0E6C245EAD2B8EBD6
:10057000020E69EB03050138E4E72846D7E7404659
:1005800091E78146BEE7014678E702383C4445E7FB
:10059000084608E7A8F102083D442BE7704700BF72
:1005A00008B50B4B1A6842F400721A601A6842F4DC
:1005B00080621A601A6842F480721A60032000F0A8
:1005C0001BF8002002F01EF801F0AEFF002008BD6D
:1005D000003C0240034A044B11681B780B44136033
:1005E000704700BF3C40002000000020014B18680D
:1005F000704700BF3C400020074AD36823F4E06303
:100600001B041B0C43F0BF63000243F4003300F4EF
:10061000E0600343D360704700ED00E0174B30B556
:10062000DC68C4F30224C4F10703251D042B28BF92
:100630000423062D4FF0010505FA03F303F1FF3300
:100640008CBF033C00241940A14005FA04F4013C8E
:100650002240002842EA01024FEA0212ADBF00F137
:10066000604000F00F00064B00F56140B5BFD2B20C
:10067000D2B21A5480F8002330BD00BF00ED00E074
:1006800014ED00E0002808DB4209012300F01F0000
:1006900003FA00F0014B43F82200704700E100E04C
:1006A0002DE9F04F85B00B68DFF88C81604A01932B
:1006B0004FF001090023019D09FA03F42540AC42E3
:1006C00040F0A6804C6824F0100C0CF1FF36012E8F
:1006D0004FEA430E12D88768032606FA0EF627EA79
:1006E0000607CE6806FA0EF63E4386604768C4F3F6
:1006F000001627EA05079E403E4346600326C7686A
:1007000006FA0EF6F64307EA060A8F6807FA0EF7AE
:1007100047EA0A07BCF1020FC76016D14FEAD30AB5
:1007200000EB8A0A03F0070BDAF820704FEA8B0B14
:100730004FF00F0C0CFA0BFC27EA0C0C0F6907FAB0
:100740000BF747EA0C07CAF8207007683E4004F030
:10075000030707FA0EFE4EEA06060660E60057D5C6
:100760004FF0000BCDF80CB0D8F84470314E47F480
:100770008047C8F84470D8F8447007F4804703975E
:10078000039F23F0030707F1804707F59C3703F029
:10079000030CD7F808A04FEA8C0C4FF00F0E0EFA9E
:1007A0000CFEB0422AEA0E0E39D006F58066B04241
:1007B00037D006F58066B04235D006F58066B04287
:1007C00033D006F58066B04214BF0726042606FA29
:1007D0000CF646EA0E06BE601668EF4314F4803F3E
:1007E0000CBF3E402E431660566814F4003F0CBF09
:1007F0003E402E435660966814F4801F0CBF3E4066
:100800002E439660D668A40254BF3E402E43D66065
:100810000133102B7FF44FAF05B0BDE8F08F5E467B
:10082000D5E70126D3E70226D1E70326CFE700BFAD
:10083000003C0140000002400038024003691942B8
:1008400014BF0120002070470AB18161704709047C
:10085000FBE700002DE9F341044608B901203FE021
:100860000368DD0710D4236898075AD423681A0751
:1008700000F19C8023685B0700F1BA80A069002822
:1008800040F01B8100202BE0A44B9A6802F00C0280
:10089000042A07D09A6802F00C02082A0AD15B6881
:1008A000590207D59D4B1B689A03DCD56368002B62
:1008B000D9D1D3E76368994DB3F5803F13D12B6845
:1008C00043F480332B60FFF791FE944D06462B686E
:1008D0009B03C8D4FFF78AFE801B6428F7D9032046
:1008E00002B0BDE8F081B3F5A02F04D12B6843F42A
:1008F00080232B60E3E72A6822F480322A602A688A
:1009000022F480222A60002BDDD1FFF76FFE06461D
:100910002B689F03A7D5FFF769FE801B6428F7D9D2
:10092000DDE77E4B9A6812F00C0F07D09A6802F050
:100930000C02082A11D15B685E020ED4774B1A684C
:10094000950702D5E268012A88D11A68216922F048
:10095000F80242EAC1021A6088E7E268704BB2B15D
:1009600001221A60FFF742FE6C4D06462B6898077D
:1009700007D52B68226923F0F80343EAC2032B60F2
:1009800074E7FFF733FE801B0228EFD9A7E71A6050
:10099000FFF72CFE614D06462B6899077FF566AF81
:1009A000FFF724FE801B0228F6D998E762695D4BA9
:1009B0007AB101221A60FFF719FE584D06466B6F97
:1009C0009F073FF557AFFFF711FE801B0228F6D9AE
:1009D00085E71A60FFF70AFE504D06466B6F9807D1
:1009E0007FF548AFFFF702FE801B0228F6D976E7B5
:1009F0004A4B1A6C12F0805228D101921A6C42F0C4
:100A000080521A641B6C03F080530193019B0126F2
:100A1000454D2B68D9051BD5A368404D012B27D127
:100A20002B6F43F001032B67FFF7E0FD3B4D0746BB
:100A300041F288382B6F9B0739D5002E3FF41EAF4B
:100A4000364A136C23F08053136417E70026DFE760
:100A50002B6843F480732B60FFF7C8FD07462B68B3
:100A6000DA05D9D4FFF7C2FDC01B0228F7D936E753
:100A7000052B04D12B6F43F004032B67D0E72A6FBB
:100A800022F001022A672A6F22F004022A67002B53
:100A9000CAD1FFF7ABFD41F2883807462B6F9807A4
:100AA000CBD5FFF7A3FDC01B4045F7D917E7FFF7EC
:100AB0009DFDC01B4045BDD911E7184DAB6803F043
:100AC0000C03082B47D0194E00230228336035D180
:100AD000FFF78CFD07462B68990129D4226AE36948
:100AE0001343626A43EA8213E26A43EA0263A26A38
:100AF0000A4C5208013A43EA02436B600123336017
:100B0000FFF774FD054623689A013FF5BBAEFFF77A
:100B10006DFD401B0228F6D9E1E600BF0038024017
:100B200000004742800E474200700040600047428C
:100B3000FFF75CFDC01B0228CDD9D0E6FFF756FDBC
:100B400004462B689B017FF59DAEFFF74FFD001B10
:100B50000228F6D9C3E601283FF4C2AEA868E369CB
:100B600000F480029A427FF479AE226A00F03F03DB
:100B700093427FF473AE626A47F6C07303409342B8
:100B80007FF46CAEA26A00F4403393427FF466AE09
:100B9000E36A00F07060C01A18BF0120A0E600BF31
:100BA000134908B58B6803F00C03042B03D0082B02
:100BB00003D0104808BD104808BD4A684B68496812
:100BC00013F4800314BF0C480A48C1F3881118BFFE
:100BD000002302F03F02A1FB0001FFF759FB044B89
:100BE0005B68C3F3014301335B00B0FBF3F008BD66
:100BF000003802400024F40000127A002DE9F04190
:100C00000D46044610B90120BDE8F081444B1A6836
:100C100002F00F028A4229D321688F072ED4C80719
:100C200041D43F4B1A6802F00F02954267D3226805
:100C300051076DD4130707D53A4A2169936823F405
:100C4000604343EAC1039360FFF7AAFF354B364A7E
:100C50009B68C3F30313D35CD840344B1860344B08
:100C6000186801F0CFFC0020BDE8F081CAB21A700C
:100C70001B6803F00F039942C5D1CDE7294B11F052
:100C8000040F1EBF9A6842F4E0529A600E0742BFFA
:100C90009A6842F460429A609A68A06822F0F00272
:100CA00002439A60BBE762681E4B012A1DD11B6894
:100CB00013F4003FA7D01B4EB36823F00303134384
:100CC000B360FFF793FC41F288380746B368626867
:100CD00003F00C03B3EB820FA3D0FFF787FCC01B1C
:100CE0004045F3D90320BDE8F081911E01291B681E
:100CF00002D813F0007FDDE713F0020FDAE7EAB263
:100D00001A701B6803F00F039D427FF47CAF8EE7DF
:100D10000449E0688B6823F4E05303438B6089E760
:100D2000003C0240003802407B3000080C000020EC
:100D300004000020044B054A9B68C3F38223D35C64
:100D4000034A1068D8407047003802408B300008D2
:100D50000C000020044B054A9B68C3F34233D35C6C
:100D6000034A1068D8407047003802408B300008B2
:100D70000C0000200F2303600B4B9A6802F0030263
:100D800042609A6802F0F00282609A6802F4E052CF
:100D9000C2609B68DB0803F4E0530361034B1B68EC
:100DA00003F00F030B60704700380240003C024024
:100DB000022380F83D3003689A6802F00702062A91
:100DC0001EBF1A6842F001021A60012380F83D300C
:100DD000002070470368DA6842F00102DA609A681E
:100DE00002F00702062A1EBF1A6842F001021A60CA
:100DF00000207047704770477047704703681A6952
:100E0000910710B504460ED5DA6892070BD56FF03E
:100E100002021A619B6901229B07027777D0FFF7D4
:100E2000EAFF0023237723681A69500710D5DA6890
:100E300051070DD56FF004021A619B69022213F469
:100E4000407F2277204668D0FFF7D5FF0023237725
:100E500023681A6912070FD5DA6810070CD56FF0EE
:100E600008021A61DB6904229907227720465AD0CA
:100E7000FFF7C1FF0023237723681A69D20610D534
:100E8000DA68D0060DD56FF010021A61DB6908220E
:100E900013F4407F227720464BD0FFF7ACFF0023AE
:100EA000237723681A69D10708D5DA68D20705D5F0
:100EB0006FF001021A61204601F02CFB23681A69C9
:100EC000100608D5DA68110605D56FF080021A61A0
:100ED000204600F076F923681A69520608D5DA68C8
:100EE000500605D56FF040021A612046FFF785FFD6
:100EF00023681A69910622D5DA6892061FD56FF029
:100F0000200220461A61BDE8104000F059B9FFF7F1
:100F100071FF2046FFF770FF83E7FFF76BFF204666
:100F2000FFF76AFF92E7FFF765FF2046FFF764FFD0
:100F3000A0E7FFF75FFF2046FFF75EFFAFE710BDBA
:100F4000244A036890420ED0B0F1804F0BD0A2F536
:100F50007C42904207D002F58062904203D002F5B5
:100F60008062904215D14A6823F070031343194AF6
:100F7000904219D0B0F1804F16D0A2F57C42904239
:100F800012D002F5806290420ED002F5806290424B
:100F90000AD0114A904207D002F58062904203D0F5
:100FA00002F58062904203D1CA6823F44073134370
:100FB0004A6923F08003134303608B68C3620B68A4
:100FC0008362044B984204BF0B69036301234361AE
:100FD000704700BF000001400040014010B50446CA
:100FE000A0B190F83D3003F0FF021BB980F83C201F
:100FF00001F0BCFA022384F83D302068211DFFF780
:101000009FFF012384F83D30002010BD012010BD5A
:1010100010B584680A4324F47F4442EA032323433F
:10102000836010BD90F83C30012B70B504464FF042
:10103000020019D084F83D002068012384F83C3078
:10104000836823F47F4323F0770383600B68402B8E
:1010500065D015D8102B0CD007D853B10123002030
:1010600084F83D3084F83C0070BD202B01D0302B3B
:10107000F4D1826843F0070322F0700213431AE0B0
:10108000602B34D019D8502BE8D14A68CE68016A59
:10109000056A25F001050562836921F00A0123F044
:1010A000F00343EA06130A4383610262836823F074
:1010B000700343F057038360D0E7702B0CD0B3F577
:1010C000005FCBD1CB684A688968FFF7A1FF22682F
:1010D000936843F4804308E0CB684A688968FFF767
:1010E00097FF2268936843F077039360B6E74D68F3
:1010F000CE68016A21F0100101628269036A22F45C
:10110000704223F0A00343EA051342EA06328261EB
:101110000362836823F0700343F06703CBE74A68F8
:10112000CE68016A056A25F001050562836921F030
:101130000A0123F0F00343EA06130A4383610262C3
:10114000836823F0700343F04703B4E790F83C3022
:10115000012B30B54FF002032DD080F83D300368ED
:101160000D685C6824F0700401222C4380F83C2058
:101170009A685C60114CA34212D0B3F1804F0FD03B
:10118000A4F57C44A3420BD004F58064A34207D0AD
:1011900004F58064A34203D004F59A34A34204D139
:1011A000496822F080020A439A60012380F83D30AA
:1011B000002380F83C30184630BD00BF00000140DD
:1011C0007047704738B50368C1681A69044622F44D
:1011D00040520A431A612569A268D968C0692A4346
:1011E000656921F416412A4321F00C0102430A43A8
:1011F000DA605A69A16922F440720A43B0F5004FDF
:101200005A61254A29D1934203D002F58062934264
:1012100020D1FFF79FFD6268256892184FF0000308
:101220004FF019015B41A0FB0101FFF731F8642188
:10123000B0FBF1F401FB1403DB003233B3FBF1F339
:1012400003F007025B0002EB041203F4F87313448B
:10125000AB6038BDFFF76EFDDDE7934202D00F4A69
:10126000934216D1FFF776FD6368256819219A002D
:10127000A0FB01019B0FFFF70BF86422B0FBF2F11A
:1012800002FB11031B013233B3FBF2F303EB011337
:10129000DEE7FFF74FFDE7E70010014000140140D3
:1012A000F8B504460E4617461D4621680B6836EA17
:1012B000030301D10020F8BD6B1CF7D095B923685A
:1012C000DA6822F4D072DA605A6922F001025A61B7
:1012D000202384F8393084F83A30002384F83830F9
:1012E0000320F8BDFFF782F9C01B8542DDD2E6E797
:1012F00010B5044640B390F8393003F0FF021BB933
:1013000080F8382001F04AF92268242384F8393023
:10131000D36823F40053D3602046FFF753FF2368BC
:101320001A6922F490421A615A6922F02A025A611B
:10133000DA6842F40052DA6000202023E06384F887
:10134000393084F83A3010BD012010BD2DE9F84342
:101350001F4690F83930202B04460D46904651D157
:1013600000294CD0002A4AD090F83830012B49D0BF
:10137000012380F838304FF000092123C0F83C9059
:1013800080F83930FFF732F9A4F824800646A4F833
:10139000268084F83890E38C9BB25BB93B4632469A
:1013A00040212046FFF77CFFA0B9202384F8393084
:1013B000BDE8F883E38C013B9BB2E384A368B3F5FB
:1013C000805F32463B464FF0800120460ED1FFF74A
:1013D00067FF10B10320BDE8F8832B882268C3F3B0
:1013E00008035360236943B90235D4E7FFF758FF78
:1013F0000028EFD123682A785A600135CBE7012015
:10140000BDE8F8830220BDE8F88308B500F0A8FC29
:10141000002008BD70B5054646692A694068B5F9DF
:1014200008400B4686B0296876B1AD6965B1842C59
:1014300014BF0334002402958DE8500000F02CFC0A
:101440000590059806B070BD842C14BF03340024A9
:1014500005AD92B28DE8300000F055FC0128F0D0C7
:101460000020EFE708B5002808BF012000F0C0FD0C
:10147000002008BD00F1080343604FF0FF32C36055
:10148000036100238260036070470023036170479B
:1014900043684B609A688A609A68516099600368F3
:1014A00008610133036070470A68531C30B50AD1E4
:1014B00003695A684A6091608B60596003680861EB
:1014C0000133036030BD00F108035C682568AA425F
:1014D000EFD32346F9E74168826803698A6082682E
:1014E00051605968884208BF5A60002202611A6838
:1014F000013A1A601868704782B0002301930D4BBF
:101500001B68013308D04FF0500383F31188BFF3F9
:101510006F8FBFF34F8FFEE74FF0500383F31188B7
:10152000BFF36F8FBFF34F8F019B002BFCD002B036
:10153000704700BF0800002008480068006880F37A
:1015400008884FF0000080F3148862B661B6BFF3DC
:101550004F8FBFF36F8F00DF00BF000008ED00E08A
:10156000DFF80C00016841F4700101607047000071
:1015700088ED00E04FF0807340F8043C074B40F8E2
:101580000C3C21F001016FF0020340F8081C40F808
:10159000202C40F8243C4438704700BFF914000860
:1015A000074B19680868B0E8F04F80F30988BFF36B
:1015B0006F8F4FF0000080F311887047AFF3008009
:1015C000B03C00204FF0500383F31188BFF36F8FBE
:1015D000BFF34F8F0A4A13680133012B13600DD1FB
:1015E000084B1B6813F0FF0F08D04FF0500383F334
:1015F0001188BFF36F8FBFF34F8FFEE7704700BFB7
:101600000800002004ED00E0084A136843B94FF0D9
:10161000500383F31188BFF36F8FBFF34F8FFEE743
:10162000013B13600BB983F3118870470800002059
:10163000EFF30980BFF36F8F154B1A681EF0100F80
:1016400008BF20ED108A20E9F04F10602DE9090055
:101650004FF0500080F31188BFF34F8FBFF36F8FAF
:1016600000F0EAFC4FF0000080F3118809BC196813
:101670000868B0E8F04F1EF0100F08BFB0EC108AF9
:1016800080F30988BFF36F8F704700BFAFF300800E
:10169000B03C002008B54FF0500383F31188BFF32E
:1016A0006F8FBFF34F8F00F099FB18B1034B4FF0D2
:1016B00080521A60002383F3118808BD04ED00E016
:1016C000084A0949002313600B60084B4FF47A71F4
:1016D0001B68B3FBF1F30649013B0B600723136062
:1016E000704700BF10E000E018E000E00C000020B0
:1016F00014E000E0394B3A4A13B51968914208D119
:101700004FF0500383F31188BFF36F8FBFF34F8FF8
:10171000FEE71A68334B9A4208D14FF0500383F327
:101720001188BFF36F8FBFF34F8FFEE72E4B1A78F0
:10173000D2B20192FF221A701B782C4ADBB28DF8CC
:1017400003309DF8033003F050031370284B072239
:101750001A6000219DF80300000602F1FF340DD449
:1017600001B11A601A68032A11D04FF0500383F3B5
:101770001188BFF36F8FBFF34F8FFEE79DF80320F3
:101780005200D2B28DF8032001212246E2E7120274
:1017900002F4E0621A60019B134ADBB21370154B2E
:1017A0001A6842F470021A601A6842F070421A60B5
:1017B000FFF786FF104B00241C60FFF7D1FE0F4A95
:1017C000136843F040431360FFF7B6FE00F034FCAB
:1017D000FFF792FE204602B010BD00BF00ED00E012
:1017E00071C20F4170C20F4100E400E09000002080
:1017F0009400002020ED00E00800002034EF00E01D
:1018000010B50F4B1A68824218D35C6819198842C8
:1018100001BF4168184609195960446801198A4294
:1018200007D1084909688A421FBF5168126809191F
:1018300041609842026018BF186010BD1346E1E78E
:10184000A83C0020980000202DE9F041044600F05B
:10185000BDFA3E493E4D0B680BBB3E4A56071FBFC3
:10186000D01D20F0070002F570531B1A14BF02466A
:101870004FF470531344083B23F00703364E0B60BC
:1018800000207060326058601860981A1360334B03
:1018900050601860324B18604FF000432B602F6887
:1018A000274216D1002C41D004F1080358071CBF71
:1018B00023F00703083363B1294A1668B342904600
:1018C00007D8254A15686868834204D809688D429C
:1018D00007D100242AE02C68002CF7D02A462546A0
:1018E000F1E7296814681160C21A102A0FD9E818A4
:1018F000410708D04FF0500383F31188BFF36F8F77
:10190000BFF34F8FFEE742606B60FFF779FF13492B
:101910006B680868F61A1F4386424FF00003C8F848
:10192000006038BF0E6008346F602B6000F0E8FA8A
:10193000630708D04FF0500383F31188BFF36F8F14
:10194000BFF34F8FFEE72046BDE8F08198000020EE
:101950009C3C00209C000020A83C0020A43C0020CF
:10196000A03C002010B5044670B3184A50F8043C5F
:101970001268134208D14FF0500383F31188BFF36C
:101980006F8FBFF34F8FFEE750F8081C41B14FF047
:10199000500383F31188BFF36F8FBFF34F8FFEE7C0
:1019A00023EA020340F8043C00F010FA084A54F815
:1019B000043C1168A4F108000B441360FFF720FFFA
:1019C000BDE8104000F09CBA10BD00BF9C3C002058
:1019D000A03C00202DE9F0410646FFF7F3FD2D4B1A
:1019E0002D4C1A682D4F01321A602568002D45D103
:1019F00026601B68012B1CD178191435FFF73AFDBE
:101A00008C2DF9D1DFF8C080254D4046FFF732FD1F
:101A10002846FFF72FFD2348FFF72CFD2248FFF74C
:101A200029FD2248FFF726FD214BC3F80080214BFA
:101A30001D60214A21491368086801331360F26A66
:101A400001239340034314200B6000FB0270311DFF
:101A5000FFF71EFDFFF7D8FD194B1B6863B1236824
:101A6000DA6AF36A9A4207D2164B4FF080521A6034
:101A7000BFF34F8FBFF36F8FBDE8F081104B1B6832
:101A8000002BD6D12368DA6AF36A9A4298BF26609F
:101A9000CFE700BF483D0020B03C0020BC3C002008
:101AA000743D0020903D0020BC3D0020A83D00205A
:101AB000B43C0020B83C0020583D00205C3D002094
:101AC000A43D002004ED00E0603D0020064A1368BC
:101AD0001968064B19B94FF0FF321A607047126847
:101AE000D268D2685268F8E7B43C0020883D0020F4
:101AF0002DE9F0470A9CDDF82480266B02F1804234
:101B0000013A06EB82069A4681464B1E26F00706EE
:101B100004F134020F31587802F8010B13F8010F69
:101B200008B18B42F7D1089D062D28BF0625002756
:101B3000E5626564201D84F84370A764FFF7A5FC87
:101B4000C5F1070504F11800FFF79FFCE764246165
:101B5000A561646284F85070524649463046FFF7EA
:101B600009FD2060B8F1000F01D0C8F80040BDE8C1
:101B7000F08710B590F8513004463BB9006BFFF781
:101B8000F1FE2046BDE81040FFF7ECBE012BF9D076
:101B9000022B08D04FF0500383F31188BFF36F8FEF
:101BA000BFF34F8FFEE710BD80B5DFF85C80124FAA
:101BB000124C134D236863B9124B1B68012BF8D9E3
:101BC0004FF08053C8F80030BFF34F8FBFF36F8FD3
:101BD000EEE7FFF7F7FCFB68DE68301DFFF77BFCE4
:101BE0002B68013B2B602368013B2360FFF70CFD52
:101BF0003046FFF7BEFFDDE7BC3D00204C3D002036
:101C0000483D0020BC3C002004ED00E0F8B51B4B33
:101C10001B4E1D680446306804300F46FFF75BFC1E
:101C2000334640B93168174EC96A3268012088408E
:101C300022EA00023260621C07D137B119681248EB
:101C40000431BDE8F840FFF723BC2C441A68A542D4
:101C5000546007D90D4A10681968BDE8F84004318E
:101C6000FFF722BC0A4A106819680431FFF71CFC10
:101C7000084B1A68944238BF1C60F8BDD03D002064
:101C8000B03C00205C3D0020A83D0020B83C002076
:101C9000B43C0020883D002070B586B00B9D0C9CA4
:101CA00045B94FF0500383F31188BFF36F8FBFF333
:101CB0004F8FFEE744B94FF0500383F31188BFF311
:101CC0006F8FBFF34F8FFEE754260496049E542E69
:101CD00008D04FF0500383F31188BFF36F8FBFF329
:101CE0004F8FFEE72563022584F8515005AD01951D
:101CF0000A9D02940095FFF7FBFE2046FFF76AFE5F
:101D0000059806B070BD2DE9F043074685B09000F8
:101D1000884616469946FFF797FD0546E8B15420D8
:101D2000FFF792FD0446A8B1002380F851300D9BC7
:101D3000056301930C9B0290009332464B4641464B
:101D40003846FFF7D5FE2046FFF744FE012005B0D8
:101D5000BDE8F0832846FFF705FE4FF0FF30F6E7B9
:101D600010B588B0002407AA06A905A80594069412
:101D700000F09CF9059B0293069B01930094234677
:101D8000079A0D490D48FFF787FF90B14FF05003B8
:101D900083F31188BFF36F8FBFF34F8F084B4FF062
:101DA000FF321A60074B01221A60074B1C60FFF7D5
:101DB000A1FC08B010BD00BF3C300008A91B000802
:101DC000883D0020A43D0020D03D0020024A136839
:101DD00001331360704700BF543D00202DE9F84FD8
:101DE0003C4B1B68002B53D13B4B1C6801341C60DF
:101DF000BCB93A4B1A68126842B14FF0500383F3F2
:101E00001188BFF36F8FBFF34F8FFEE7344A196815
:101E1000106818601160334A136801331360FFF7CC
:101E200055FE314D314F2B689C424FF0000B3ED395
:101E3000DFF8A880DFF8C490D8F80020126872BBE1
:101E40004FF0FF322A6032E006F1040A5046FFF7F5
:101E500042FBB16A19B106F11800FFF73CFBF06ACA
:101E6000D9F80030012202FA00F11943204BC9F8D9
:101E700000104FF0140E51460EFB0030FFF708FB28
:101E80003868F16AC26A914228BF4FF0010BD3E76C
:101E9000184A1368013313604FF0000B11E0D8F8B3
:101EA0000020D268D66871688C42CDD229603A6829
:101EB0000F4BD16A14224A439A58022A28BF4FF086
:101EC000010B0D4A1268002A18BF4FF0010B58464B
:101ED000BDE8F88F543D0020D03D0020B43C0020E8
:101EE000B83C00208C3D0020883D0020B03C002004
:101EF000BC3C0020503D0020D43D00205C3D002033
:101F00002DE9F843314C236843B94FF0500383F374
:101F10001188BFF36F8FBFF34F8FFEE7FFF752FBC0
:101F20002368013B236024682CB10024FFF76CFB7D
:101F30002046BDE8F883264B1B68002BF5D0DFF860
:101F4000A890244FDFF8A480D9F80030E3B90CB191
:101F5000FFF7BCFD204D2C6844B1204E0127FFF750
:101F60003DFF00B13760013CF9D12C601B4B1B6871
:101F7000002BDAD01A4B4FF080521A60BFF34F8F0C
:101F8000BFF36F8F0124D1E7D9F80C30DC68261D30
:101F900004F11800FFF79FFA3046FFF79CFAE26A57
:101FA0003968012505FA02F314200B4300FB028077
:101FB00031463B60FFF76CFA0A4BE26A1B68DB6A4A
:101FC0009A4224BF054B1D60BEE700BF543D002070
:101FD000483D00205C3D0020503D0020D43D0020C5
:101FE00004ED00E0B03C0020903D0020BC3C00200F
:101FF00008B540B90E4B4FF080521A60BFF34F8FB7
:10200000BFF36F8F08BD0B4B196841B14FF0500300
:1020100083F31188BFF36F8FBFF34F8FFEE7FFF796
:10202000D5FEFFF7F3FDFFF76BFF0028E2D008BDF8
:1020300004ED00E0543D0020174B1A68174B10B513
:1020400012B101221A6010BD1A60154B1B68B3FA59
:1020500083F3DBB2C3F11F03142212495A438818D9
:102060008C5844B94FF0500383F31188BFF36F8F3E
:10207000BFF34F8FFEE744680832646844600A4447
:10208000944204BF62684260142202FB03135B683F
:10209000DA68054BD6E700BF543D0020D43D002050
:1020A0005C3D0020BC3C0020B03C0020034B0360A2
:1020B000034B0B6080231360704700BFD83F0020A4
:1020C000D83D002008B50120FFF7CCF9FBE730B57B
:1020D00087B004460D461422002101A800F063FBDE
:1020E000012301A9204601950293FEF7D9FA07B012
:1020F00030BD30B587B004460D461422002101A83A
:1021000000F051FB012301A9204601950393FEF73E
:10211000C7FA07B030BD0000034B1B6800225A62AB
:102120005A6A8242FCD370474840002010B5104CD8
:102130004FF400412046FFF7CAFF00224FF4004150
:102140002046FEF781FB44F25060FFF7E5FF4FF4B5
:10215000004120460122FEF777FB1420FFF7DCFF49
:1021600020464FF40041BDE81040FFF7C2BF00BF5A
:102170000000024038B52820FFF7CEFF4FF40041A1
:102180000D48FEF75BFBA8B95020FFF7C5FF4FF4E1
:1021900000410948FEF752FB002814BF0124FF2428
:1021A000054D4FF400412846FEF748FB0028F8D1C2
:1021B000204638BD0024F3E70000024070B5134EFE
:1021C000002407254FF400413046FEF737FB002876
:1021D000F8D02820FFF7A0FF4FF400413046FEF76B
:1021E0002DFB0123AB4068B924EA03044FF40041FE
:1021F0003046FEF723FB0028F8D115F1FF35E1D278
:10220000204670BD1C43E4B2F0E700BF000002406E
:1022100080B52648DFF8C080254E264CADF5FB6D15
:10222000FEF7C6FD244902A800F0EAFA02A8FDF76D
:10223000D7FF4FF47A7382B202A92048FFF786F8DD
:10224000FFF774FFFFF796FF88F80000FFF7B6FF6F
:102250003070FFF7B3FF2070FFF7B0FF184F194D34
:102260003870FFF7ABFF2870FFF7A8FF164B3A78DE
:102270001880164B31781A80154B207819802B78EE
:102280000190009102A8134900F096FA02A8FDF708
:10229000A7FF4FF47A7382B202A90848FFF756F8F5
:1022A00040F24C40FFF7DEF8CAE700BF484000208C
:1022B000444000209040002041300008944000201D
:1022C0008A400020D6400020D440002088400020D2
:1022D000464000204F3000082C40002030B595B01B
:1022E0003022002108A800F05EFA0021142203A881
:1022F00000F059FA00251D4B01951A6C42F08052EE
:102300001A641B6C1A4A03F080530193019B0295D7
:10231000136823F4404343F400431360136803F449
:1023200040430293029B012308934FF4A023099397
:102330004FF480030F93042310935423022411932A
:1023400008A8072313930E941294FEF783FA0F2321
:10235000039321464FF4805303A8049405950693F4
:102360000795FEF74BFC15B030BD00BF00380240AA
:102370000070004000B5ADF61C0DFEF711F9FFF737
:10238000ADFF1422002112A800F00DFA0024554BD5
:1023900000941A6B5448554D554E42F004021A638E
:1023A0001A6B02F004020092009A01941A6B42F038
:1023B00080021A631A6B02F080020192019A029461
:1023C0001A6B42F001021A631A6B02F001020292C8
:1023D000029A03941A6B42F002021A631B6B03F019
:1023E0000203224603932021039BFEF72DFA4FF4AC
:1023F0000053129312A93F4B3F4813931494FEF7D6
:102400004FF92023129312A90123374813931494F0
:102410001594FEF745F94FF4004312A93248129380
:1024200013941494FEF73CF9344AAC604FF4E13352
:1024300085E80C0028460C236B61EC602C61AC61D4
:10244000EC61FEF755FF1022214612A800F0ABF90F
:102450002B49B460532386E80A0030464FF6FE73DA
:10246000F3603461B4610B940C94FEF7B7FD4FF444
:10247000805312A930461293FEF7D4FD0BA93046C3
:102480000B940C94FEF762FE1E4912A800F0B8F9F6
:1024900012A8FDF7A5FE82B228461B4D4FF47A73B1
:1024A00012A9FEF753FF0FCD04AE0FC695E8070043
:1024B00086E80700214604A8FEF7ACFF134B0C3555
:1024C00018600FCD0BAE0FC695E8070086E8070031
:1024D00021460BA8FEF79EFF0D4B1860FEF795FFF7
:1024E000FEE700BF00380240000002409440002098
:1024F0004840002000002110000802400044004035
:10250000000C00404130000804300008404000202A
:102510008C4000200268034B9A4201D1FEF75AB862
:10252000704700BF0008004007B50F4B0022009223
:10253000596C41F480415964596C01F48041009117
:1025400000990192196C41F0805119641B6C03F0E1
:10255000805301930F216FF00100019BFEF75EF89D
:1025600003B05DF804FB00BF003802400268094B6D
:102570009A4282B00BD100230193074B1A6C42F0B0
:1025800008021A641B6C03F008030193019B02B05C
:10259000704700BF000C00400038024010B50446F0
:1025A00088B01422002103A800F0FDF82268134B24
:1025B0009A4220D103F5FA33002101911A6C104898
:1025C00042F400321A641A6C02F400320192019A49
:1025D00002911A6B42F001021A631B6B03F00103B4
:1025E0000293029B0C2303930223049303A9072362
:1025F0000793FEF755F808B010BD00BF0044004037
:102600000000024030B5014689B000221E20FEF7CE
:1026100005F81E20FEF736F80025154B02951A6CBA
:10262000144C42F004021A641B6C03F0040302937E
:1026300001A903A8029BFEF79DFBFEF77BFB0E4B57
:10264000236040F2E733E36040000C4BB0FBF3F053
:102650000138606020462561A560FEF7BFFC20B907
:102660002046FEF7B7FB09B030BD0120FBE700BFF5
:1026700000380240D84000200008004040420F00CF
:102680007047FEE7FEE7FEE7FEE770470148FEF70A
:10269000B5BB00BFD840002008B50A4B19680246F8
:1026A00009B9094919601868694602448A4206D97D
:1026B00000F044F80C2303604FF0FF3008BD1A60AF
:1026C00008BD00BF304000201C410020054BD3F85E
:1026D000882042F47002C3F888204FF000629A60AC
:1026E000704700BF00ED00E0DFF834D0002103E0C8
:1026F0000C4B5B58435004310B480C4B42189A4228
:10270000F6D30B4A02E0002342F8043B094B9A42FD
:10271000F9D3FFF7DBFF00F017F8FFF72BFE704748
:1027200000800120D8300008000000207400002044
:10273000740000201C410020FEE70000014B1868D7
:10274000704700BF1000002070B50D4E0D4CA41B4B
:10275000A4100025A54209D10B4E0C4C00F046FCFC
:10276000A41BA4100025A54205D170BD56F8253044
:1027700098470135EEE756F8253098470135F2E7DE
:10278000D0300008D0300008D0300008D430000825
:1027900010B5431E0A44914200D110BD11F8014BFF
:1027A00003F8014FF7E702440346934200D1704714
:1027B00003F8011BF9E700000EB400B59CB04FF41C
:1027C00002711DABADF81410029006906FF000413D
:1027D0000A48049107914FF6FF7153F8042BADF8A6
:1027E00016100068019302A900F06EF8029B002207
:1027F0001A701CB05DF804EB03B0704710000020A5
:10280000034611F8012B03F8012B002AF9D1704778
:102810002DE9F0478E689E4282460C4691469846C6
:1028200035D88A8912F4906F31D0256809696F1AFA
:102830006569022305EB450595FBF3F508F10103F6
:102840003B449D4238BF1D46530531D5294600F013
:102850002DFB064650B90C23CAF80030A38943F07B
:102860004003A3814FF0FF30BDE8F0873A4621696D
:10287000FFF78EFFA38923F4906343F08003A381C5
:10288000266165613E44ED1B2660A56046464645CF
:1028900028BF464632464946206800F09FFAA368A2
:1028A0009B1BA36023681E4426600020BDE8F087C0
:1028B0002A4600F059FB06460028E1D1216950461E
:1028C00000F0A6FAC7E700002DE9F04F9DB0804662
:1028D00003938B891C060D4616460FD50B696BB901
:1028E000402100F0E3FA2860286128B90C23C8F8D9
:1028F00000304FF0FF30C5E040236B6100230993A7
:1029000020238DF8293030238DF82A304FF0010B29
:1029100037463C4614F8013B002B3CD1B7EB060A86
:102920000BD05346324629464046FFF771FF01302F
:1029300000F0A380099B534409933B78002B00F0DF
:102940009C8000234FF0FF32049307930592069377
:102950008DF853301A93052221785048FDF748FC32
:10296000671C049BD8B9D90644BF20228DF8532098
:102970001A0744BF2B228DF8532022782A2A16D01A
:10298000079A00210A20274601343B78303B092B67
:1029900051D9C9B111E0252BC0D02746B9E73F4A2C
:1029A000801A0BFA00F0184304903C46D3E7039AD0
:1029B000111D12680391002A01DB079204E05242C4
:1029C00043F00203079204933B782E2B0ED17B78C1
:1029D0002A2B07F1010132D1039B1A1D1B680392B8
:1029E000002BB8BF4FF0FF33023705932C4C3978DA
:1029F00003222046FDF7FCFB38B14023001B03FAFD
:102A000000F0049B034304930137397825488DF87F
:102A1000281006227E1CFDF7EBFB002835D0224B48
:102A2000FBB9039B073323F0070308330393099B88
:102A30004B4409936CE700FB02320121A3E700231A
:102A4000059318460A240F4601313A78303A092A8C
:102A500003D9002BCAD00590C8E704FB002001234E
:102A6000F1E703AB00932A46104B04A94046AFF3AD
:102A70000080B0F1FF3F8146D9D1AB895B063FF5BD
:102A800038AF09981DB0BDE8F08F03AB00932A461C
:102A9000064B04A9404600F081F8EAE793300008AD
:102AA000993000089D30000800000000112800083F
:102AB0002DE9F04791461F468A680B69DDF82080B2
:102AC0009342B8BF1346C9F8003091F84320064638
:102AD0000C4612B10133C9F800302368990642BF91
:102AE000D9F800300233C9F80030256815F0060522
:102AF00007D104F1190AE368D9F800209B1A9D4216
:102B000029DB94F843302268003318BF0123920672
:102B10002ED404F1430239463046C047013021D05B
:102B20002368E568D9F8002003F00603042B08BFEA
:102B3000AD1AA36822690CBF25EAE575002593420A
:102B4000C4BF9B1AED184FF000091A344D451BD134
:102B50000020BDE8F0870123524639463046C04781
:102B6000013003D14FF0FF30BDE8F0870135C2E7F7
:102B7000E1185A1C302081F84300224494F8451093
:102B800082F843100233C4E7012322463946304617
:102B9000C0470130E6D009F10109D7E72DE9F0433C
:102BA00017460A7E85B06E2A984606460C460C9B50
:102BB00001F1430E00F0BC801AD8632A2ED00AD847
:102BC000002A00F0C880582A00F08A8004F14205EB
:102BD00084F842202AE0642A01D0692AF6D12168CB
:102BE0001A6811F0800F23D0111D1960136827E0B7
:102BF000732A00F0B48008D86F2A2AD0702AE5D151
:102C00000A6842F020020A6003E0752A21D0782A7F
:102C1000DCD1782284F845206E4964E01A6801F11D
:102C20004205111D1960136884F842300123A3E0A6
:102C300011F0400F02F104011960D7D0B2F9003051
:102C4000002B03DA2D225B4284F8432062490A22DA
:102C500017E02068196810F0800F03D0081D186075
:102C60000B6806E010F0400F01F104001860F7D087
:102C70000B8859496F2A14BF0A220822002084F8C1
:102C800043006568A560002DC0F29C80206820F09C
:102C900004002060002B3FD1002D40F09580754648
:102CA000082A0BD12368DA0708D5236962689A429B
:102CB000DEBF302305F8013C05F1FF35AEEB05031F
:102CC0002361CDF800803B4603AA21463046FFF73A
:102CD000EFFE013055D14FF0FF3005B0BDE8F08375
:102CE00081F845203C492268186812F0800F00F1F5
:102CF00004051D6001D0036802E05506FBD503887A
:102D0000D00744BF42F0200222601BB9226822F0A3
:102D1000200222601022B1E77546B3FBF2F002FBFD
:102D20001033CB5C05F8013D03460028F5D1B7E729
:102D300008681A68496910F0800F04D0101D1860E7
:102D40001368196007E010F0400F02F104001860EA
:102D50001368F6D01980002323617546B1E71A681D
:102D6000111D19601568626800212846FDF740FAB8
:102D700008B1401B606063682361002384F843301E
:102D80009FE723692A4639463046C0470130A2D022
:102D900023689B0707D5002504F11909E368039A06
:102DA0009B1A9D4205DBE068039B9842B8BF18461A
:102DB00093E701234A4639463046C04701308AD05E
:102DC0000135EBE7002BA7D10B7884F8423004F1F2
:102DD000420565E7B5300008A4300008884210B508
:102DE00001EB020303D8421E99420CD110BD984258
:102DF000F9D28118D21AD34200D110BD13F8014D77
:102E000001F8014DF7E711F8014B02F8014FEBE72C
:102E100038B50546002945D051F8043C0C1F002B5D
:102E2000B8BFE41800F0D6F81F4A1368104633B94B
:102E3000636014602846BDE8384000F0CCB8A34277
:102E40000CD921686218934204BF1A685B686360FA
:102E500004BF521822600460ECE713465A680AB1B6
:102E6000A242FAD919685818A0420BD1206801442F
:102E7000581882421960DDD1106852685A600144C6
:102E80001960D7E702D90C232B60D3E720682118FB
:102E90008A4204BF11685268626004BF0918216049
:102EA0005C60C7E738BD00BF3440002070B5CD1C62
:102EB00025F0030508350C2D38BF0C25002D0646DE
:102EC00001DBA94203D90C233360002070BD00F060
:102ED00081F8234A1468214691B9224C23681BB912
:102EE000304600F067F820602946304600F062F86E
:102EF000431C26D10C233360304600F06CF8E4E725
:102F00000B685B1B1AD40B2B0FD90B60CD50CC1860
:102F1000304600F060F804F10B00231D20F007009C
:102F2000C31A1BD05A42E25070BD8C420DBF636879
:102F30004B686360136018BF0C46E9E70C464968AC
:102F4000CAE7C41C24F00304A04205D0211A30466D
:102F500000F030F80130CDD02560D9E770BD00BF5A
:102F60003440002038400020F8B5074614460E468D
:102F700021B91146BDE8F840FFF798BF22B9FFF725
:102F800047FF25462846F8BD00F026F884420FD9B1
:102F900021463846FFF78AFF05460028F2D0314621
:102FA0002246FFF7F5FB31463846FFF731FFE9E7E8
:102FB0003546E7E738B5064C00230546084623604A
:102FC000FFF76AFB431C02D1236803B12B6038BDB5
:102FD000184100207047704751F8040C0028A0F1F8
:102FE0000400BCBF0B58C01870470000F8B500BF04
:102FF000F8BC08BC9E467047F8B500BFF8BC08BCDA
:043000009E46704731
:103004006F300008C5200008000000000000000028
:10301400000400000000000000000000663000080A
:1030240011220008FDFF000000000000000800005D
:10303400000000000000000049444C450068656C35
:103044006C6F20776F726C640A0D0074656D703D4F
:1030540025642E25642068756D3D25642E25640A3B
:103064000D006D795461736B30320064656661756F
:103074006C745461736B00000000000000000001D8
:1030840002030406070809000000000102030423E8
:103094002D302B2000686C4C006566674546470060
:1030A400303132333435363738394142434445467A
:1030B4000030313233343536373839616263646510
:0430C40066000000A2
:0830C800F8D1FF7F01000000B8
:0430D000C50100082E
:0430D400A10100084E
:1030D8000100000010000000AAAAAAAA0024F40017
:1030E80014000020000000000000000000000000A4
:1030F80000000000000000000000000000000000C8
:1031080000000000000000000000000000000000B7
:1031180000000000000000000000000000000000A7
:103128000000000000000000000000000000000097
:103138000000000000000000000000000000000087
:043148000000000083
:04000005080026E9E0
:00000001FF
